:020000020000FC
:100000000FE50DBF04E00EBF78940FEF04BB00E5D1
:1000100005BBABD01AD0AF9AB3C0B4E0A1E057D0C3
:100020000895B4E0A0E053D00895B2E0AFE04FD01F
:100030000895B3E0A7E04BD00895B1E0AFE147D019
:100040000895B1E0A0E043D008951FD0B0E6A7E343
:100050003ED0B1E6AFE43BD0B2E6AEE038D0B3E696
:1000600036D0B4E6AEE733D0D8DF08950ED0B1E095
:10007000A8E12DD0B0E6AFE42AD0B1E6A5E027D0C4
:10008000B2E6A5E024D0C9DF0895D3DFDADFB4E01B
:10009000A0E21DD00895B7E0A1E019D00895B7E01F
:1000A000A0E015D00895B0E6A02F11D00895B1E6D4
:1000B000A02F0DD00895B2E6A02F09D00895B3E681
:1000C000A02F05D00895B4E6A02F01D00895F8948C
:1000D000AC98A99AB7FFA9983FD0A99AB6FFA9985A
:1000E0003BD0A99AB5FFA99837D0A99AB4FFA9988F
:1000F00033D0A99AB3FFA9982FD0A99AB2FFA99893
:100100002BD0A99AB1FFA99827D0A99AB0FFA99896
:1001100023D0A99AA7FFA9981FD0A99AA6FFA998AA
:100120001BD0A99AA5FFA99817D0A99AA4FFA998AE
:1001300013D0A99AA3FFA9980FD0A99AA2FFA998B2
:100140000BD0A99AA1FFA99807D0A99AA0FFA998B6
:1001500003D0AC9A78940895A89A0F9302E00A9578
:10016000F1F70F910000A898089514E11A95F1F79E
:1001700008952FEF1FEF1A95F1F72A95D9F70895F3
:02018000FFCFAF
:00000001FF
