:020000020000FC
:020000001AC024
:0200040002C038
:100008000BC0FFB672E0839B32C07A95E1F7FFBE62
:100018007894AE9908958895FFB672E0829B30C0B7
:100028007A95E1F7FFBE7894AE9908958895F8948B
:100038000FE50DBF04E00EBF0FEF04BB00E105BBE9
:10004800002707BB08BB01BB02BB06B90AE405BF12
:1000580000EC0BBF00E808B941D2CDD124D0B5E6F9
:10006800DBD1B6E6D9D1B3D139D278948895FFB629
:100078007096F0FFAE9B0CD0B7D0FFBE78949FC0AF
:10008800FFB6E051AE9B04D0AFD0FFBE789497C0C6
:10009800AE9AF0E0E0E0089528EC1FEF1A95F1F72A
:1000A8002A95D9F7089532E02FEF1FEF1A95F1F747
:1000B8002A95D9F73A95C1F70895FFB6F894EF0154
:1000C8002C963DD1E9DF32E02FEF1FEFB19914C034
:1000D8001A95E1F72A95C9F73A95B1F7A15010F4A6
:1000E800B150B8F1EF012C9612D17ED0FFBE7894B2
:1000F800B19BFECFD1DF63C01196EF012C9607D1DB
:1001080032D10027A01305C0B01303C0603009F036
:1001180004D06AD0FFBE789452C0E0D197D1DED126
:1001280052D1B4E2AEE71CD2BEDFBDDFB3E218D2D3
:10013800BADFB9DFB2E214D2B6DFB5DFB1E2A0E3CD
:100148000FD2B5E2AFEF0CD2B6E20AD2ACDF9DD146
:100158000895F894AE98AD9AB2D100E0E0D1E3D119
:10016800A2DFA1DFA0DFAD983FD0FFBE789427C003
:10017800FFB6F894EF012E96E2D08EDF32E02FEF33
:100188001FEF859914C01A95E1F72A95C9F73A9592
:10019800B1F7A95110F4B150E0F2EF012E96B7D0A3
:1001A80023D0FFBE7894859BFECF76DF08C0599692
:1001B800EF012E96ACD018D0FFBE789400C03FE077
:1001C8002FEF1FEFB19B79CF0000859BD1CF0000A7
:1001D8001A95C1F72A95A9F73A9591F70000F7D033
:1001E800AD98AE98AF98889579D1FDD0A0D1EF01A0
:1001F8002C96A5D09B2F8A2FB6D013D08AD1012F49
:1002080082D1022F7AD19BD066D0B9D00AD0AF99CB
:10021800006889D1012FAF99006881D1D4D0AE9AF6
:100228000895222711270027B1FD13D0B0FD18D05B
:10023800A7FD1ED0A6FD23D0A5FD27D0A4FD2BD059
:10024800A3FD2ED0A2FD30D0A1FD32D0A0FD34D028
:10025800089503950395139535E0230F30D008953D
:1002680036E0030F3A95130F2395239528D0089568
:1002780038E0030F13951395239521D0089534E0A2
:10028800030F36E0130F1BD008950395039533E051
:10029800130F15D0089536E0030F139510D0089565
:1002A80038E0030F0CD0089534E0030F08D0089508
:1002B8000395039504D00895039501D008950A3055
:1002C80010F013950A501A3010F023951A502A305E
:1002D80008F05BD00895AF98B91730F009F00FC057
:1002E800A81710F089F00BC0AF9A592F482F5B1B45
:1002F8004A1B10F45A9500C0B52FA42F07C0B91B8C
:10030800A81B20F4BA9502C0BB27AA2708950F930B
:100318000B2F04D00A2F02D00F910895E199FECF38
:10032800DFBBCEBB0DBBFFB6F894E29AE19AFFBEE5
:10033800C3952FB721FDD395D1FD36C008950F93EE
:1003480005D0B02F03D0A02F0F910895E199FECFCB
:10035800DFBBCEBBE09A0DB3C3952FB721FDD39574
:10036800D1FD22C008956627A83E03E0B00722F019
:100378006395A85EB340F8CF68303AF40895002733
:100388000B1303D0A43608F40895F894AE98AD9AE8
:1003980096D000E0C4D00395C6D085DE84DE83DE27
:1003A800AD98FFBE78940BCFF894AE98AD9A87D0ED
:1003B80000E0B5D002E0B7D076DE75DE74DEAD9829
:1003C800FFBE7894FCCEB4E0A1E0CAD00895B4E0B2
:1003D800A0E0C6D00895B2E0AFE0C2D00895B3E07F
:1003E800A6E0BED00895B1E0AFE1BAD00895B1E07B
:1003F800A0E0B6D0089572D0B0E6A7E3B1D0B1E6D8
:10040800AFE4AED0B2E6AEE0ABD0B3E6A9D0B4E686
:10041800AEE7A6D0D8DF0895AA27A068A1D043DE0A
:10042800A1609ED040DEA2609BD03DDEA46098D043
:100438003ADEA86095D037DEA06192D034DEA062A3
:100448008FD031DEA0648CD02EDE089547D0B0E680
:10045800A1E086D0B3E684D0B6E6A8E781D0B3DFC2
:1004680005E021DE0A95E9F7B0E6A3E679D0B3E620
:1004780077D002E018DE0A95E9F7B6E6A4EB70D06B
:1004880003E011DE0A95E9F70895A0E0B1E404DE7F
:1004980067D0B2E465D0B4E463D0B5E461D0B0E429
:1004A800A3E65ED0B3E45CD0B6E4A4EB59D0B4E0E4
:1004B800ADE056D004E1F7DD0A95E9F708950ED0CE
:1004C800B1E0A8E14DD0B0E6AFE44AD0B1E6A5E08E
:1004D80047D0B2E6A5E044D076DF089580DF7BDF21
:1004E80086DFB4E0A0E23CD00895B7E0A1E038D0C0
:1004F8000895B7E0A0E034D00895B0E6A02F62FDDB
:10050800A0682ED00895B1E6A02F61FDA06828D07C
:100518000895B2E6A02F60FDA06822D00895B3E642
:10052800A02F1ED00895B4E6A02F1AD00895DF2F6B
:10053800CE2F0E2F88940795079507950795B5E652
:1005480003FDB6E603FD077FF3E0E3E0E00F08F400
:10055800F39500270995FD2FEC2FA02F01D00895C2
:10056800FFB6F894AC98A99AB7FFA9983FD0A99A72
:10057800B6FFA9983BD0A99AB5FFA99837D0A99AF0
:10058800B4FFA99833D0A99AB3FFA9982FD0A99AF4
:10059800B2FFA9982BD0A99AB1FFA99827D0A99AF8
:1005A800B0FFA99823D0A99AA7FFA9981FD0A99A04
:1005B800A6FFA9981BD0A99AA5FFA99817D0A99A10
:1005C800A4FFA99813D0A99AA3FFA9980FD0A99A14
:1005D800A2FFA9980BD0A99AA1FFA99807D0A99A18
:1005E800A0FFA99803D0AC9AFFBE0895A89A0F93CC
:1005F80002E00A95F1F70F910000A898089507C046
:1006080008C009C00AC00BC00CC00DC00EC00068ED
:1006180008950160089502600895046008950860CF
:0E062800089500610895006208950064089529
:00000001FF
