:020000020000FC
:0200000016C028
:0200040002C038
:1000080009C0FFB612E0839B2EC01A95E1F7FFBE28
:1000180078948895FFB612E0829B2FC01A95E1F775
:10002800FFBE78948895F8940FE50DBF04E00EBFE5
:100038000FEF04BB00E105BB002707BB08BB01BBF2
:1000480002BB06B90AE405BF00EC0BBF00E808B91B
:1000580047D2D3D126D0B5E6E1D1B6E6DFD1B9D1C2
:100068003FD278948895FFB6AD987096F0FFAE9B16
:100078000DD0BCD0FFBE7894A3C0FFB6AD98E051B8
:10008800AE9B04D0B3D0FFBE78949AC0AE9AF0E08D
:10009800E0E0089528EC1FEF1A95F1F72A95D9F7B3
:1000A800089532E02FEF1FEF1A95F1F72A95D9F747
:1000B8003A95C1F70895AD98FFB6F894EF012C96DC
:1000C80040D1E8DF32E02FEF1FEFB19914C01A9545
:1000D800E1F72A95C9F73A95B1F7A15010F4B15054
:1000E800C0F1EF012C9615D181D0FFBE7894B19B59
:1000F800FECFD0DF65C01196EF012C960AD135D11D
:100108000027A01305C0B01303C0603009F005D064
:10011800C1DF6CD0FFBE789453C0E2D199D1E0D151
:1001280054D1B4E2AEE71ED2BCDFBBDFB3E21AD2D1
:10013800B8DFB7DFB2E216D2B4DFB3DFB1E2A0E3D3
:1001480011D2B5E2AFEF0ED2B6E20CD2AADF9FD140
:100158000895F894AE98AD9AB4D100E0E2D1E5D113
:10016800A0DF9FDF9EDFAD9841D0FFBE789428C006
:10017800AD98FFB6F894EF012E96E3D08BDF32E00E
:100188002FEF1FEF859914C01A95E1F72A95C9F743
:100198003A95B1F7A95110F4B150D8F2EF012E9663
:1001A800B8D024D0FFBE7894859BFECF73DF08C0FB
:1001B8005996EF012E96ADD019D0FFBE789400C0A5
:1001C800AD9A3FE02FEF1FEFB19B75CF0000859BE5
:1001D800CFCF00001A95C1F72A95A9F73A9591F75C
:1001E8000000F7D0AD98AE98AF98889579D1FDD03A
:1001F800A0D1EF012C96A5D09B2F8A2FB6D013D073
:100208008AD1012F82D1022F7AD19BD066D0B9D062
:100218000AD0AF99006889D1012FAF99006881D1C0
:10022800D4D0AE9A0895222711270027B1FD13D004
:10023800B0FD18D0A7FD1ED0A6FD23D0A5FD27D060
:10024800A4FD2BD0A3FD2ED0A2FD30D0A1FD32D02D
:10025800A0FD34D0089503950395139535E0230F39
:1002680030D0089536E0030F3A95130F2395239560
:1002780028D0089538E0030F13951395239521D0BE
:10028800089534E0030F36E0130F1BD0089503954B
:10029800039533E0130F15D0089536E0030F139537
:1002A80010D0089538E0030F0CD0089534E0030F00
:1002B80008D008950395039504D00895039501D0B7
:1002C80008950A3010F013950A501A3010F023954B
:1002D8001A502A3008F05BD00895AF98B91730F05B
:1002E80009F00FC0A81710F089F00BC0AF9A592F6A
:1002F800482F5B1B4A1B10F45A9500C0B52FA42F3A
:1003080007C0B91BA81B20F4BA9502C0BB27AA27AF
:1003180008950F930B2F04D00A2F02D00F91089540
:10032800E199FECFDFBBCEBB0DBBFFB6F894E29AD6
:10033800E19AFFBEC3952FB721FDD395D1FD36C0F5
:1003480008950F9305D0B02F03D0A02F0F910895D3
:10035800E199FECFDFBBCEBBE09A0DB3C3952FB7B3
:1003680021FDD395D1FD22C008956627A83E03E05C
:10037800B00722F06395A85EB340F8CF68303AF42E
:10038800089500270B1303D0A43608F40895F894B1
:10039800AE98AD9A96D000E0C4D00395C6D081DE61
:1003A80080DE7FDEAD98FFBE78940ACFF894AE98D1
:1003B800AD9A87D000E0B5D002E0B7D072DE71DE2A
:1003C80070DEAD98FFBE7894FBCEB4E0A1E0CAD051
:1003D8000895B4E0A0E0C6D00895B2E0AFE0C2D07E
:1003E8000895B3E0A6E0BED00895B1E0AFE1BAD079
:1003F8000895B1E0A0E0B6D0089572D0B0E6A7E3C2
:10040800B1D0B1E6AFE4AED0B2E6AEE0ABD0B3E681
:10041800A9D0B4E6AEE7A6D0D8DF0895AA27A06889
:10042800A1D03FDEA1609ED03CDEA2609BD039DE29
:10043800A46098D036DEA86095D033DEA06192D053
:1004480030DEA0628FD02DDEA0648CD02ADE089525
:1004580047D0B0E6A1E086D0B3E684D0B6E6A8E7F8
:1004680081D0B3DF05E01DDE0A95E9F7B0E6A3E623
:1004780079D0B3E677D002E014DE0A95E9F7B6E65C
:10048800A4EB70D003E00DDE0A95E9F70895A0E02B
:10049800B1E400DE67D0B2E465D0B4E463D0B5E47B
:1004A80061D0B0E4A3E65ED0B3E45CD0B6E4A4EBDC
:1004B80059D0B4E0ADE056D004E1F3DD0A95E9F790
:1004C80008950ED0B1E0A8E14DD0B0E6AFE44AD02F
:1004D800B1E6A5E047D0B2E6A5E044D076DF0895BE
:1004E80080DF7BDF86DFB4E0A0E23CD00895B7E090
:1004F800A1E038D00895B7E0A0E034D00895B0E680
:10050800A02F62FDA0682ED00895B1E6A02F61FD4E
:10051800A06828D00895B2E6A02F60FDA06822D078
:100528000895B3E6A02F1ED00895B4E6A02F1AD0E0
:100538000895DF2FCE2F0E2F8894079507950795DE
:100548000795B5E603FDB6E603FD077FF3E0E5E0B2
:10055800E00F08F4F39500270995FD2FEC2FA02F45
:1005680001D00895FFB6F894AC98A99AB7FFA99856
:100578003FD0A99AB6FFA9983BD0A99AB5FFA998E8
:1005880037D0A99AB4FFA99833D0A99AB3FFA998EC
:100598002FD0A99AB2FFA9982BD0A99AB1FFA998F0
:1005A80027D0A99AB0FFA99823D0A99AA7FFA998FC
:1005B8001FD0A99AA6FFA9981BD0A99AA5FFA99808
:1005C80017D0A99AA4FFA99813D0A99AA3FFA9980C
:1005D8000FD0A99AA2FFA9980BD0A99AA1FFA99810
:1005E80007D0A99AA0FFA99803D0AC9AFFBE089596
:1005F800A89A0F9302E00A95F1F70F910000A898C6
:10060800089507C008C009C00AC00BC00CC00DC0BF
:100618000EC000680895016008950260089504609E
:1006280008950860089500610895006208950064BF
:02063800089523
:00000001FF
