:020000020000FC
:020000001AC024
:0200040002C038
:100008000BC0FFB672E0839B32C07A95E1F7FFBE62
:100018007894AE9908958895FFB672E0829B30C0B7
:100028007A95E1F7FFBE7894AE9908958895F8948B
:100038000FE50DBF04E00EBF0FEF04BB00E105BBE9
:10004800002707BB08BB01BB02BB06B90AE405BF12
:1000580000EC0BBF00E808B93DD2C9D124D0B5E601
:10006800D7D1B6E6D5D1AFD135D278948895FFB639
:100078007096F0FFAE9B0CD0B6D0FFBE78949EC0B1
:10008800FFB6E051AE9B04D0AED0FFBE789496C0C8
:10009800AE9AF0E0E0E0089528EC1FEF1A95F1F72A
:1000A8002A95D9F7089532E02FEF1FEF1A95F1F747
:1000B8002A95D9F73A95C1F70895FFB6F894EF0154
:1000C8002C963BD1E9DF32E02FEF1FEFB19914C036
:1000D8001A95E1F72A95C9F73A95B1F7A15010F4A6
:1000E800B150B8F1EF012C9610D17DD0FFBE7894B5
:1000F800B19BFECFD1DF62C01196EF012C9605D1DE
:1001080030D10027A01305C0B01303C0603009F038
:1001180004D069D0FFBE789451C0DCD193D1DAD134
:100128004ED1B4E2AEE718D2BEDFBDDFB3E214D2DF
:10013800BADFB9DFB2E210D2B6DFB5DFB1E2A0E3D1
:100148000BD2B5E2AFEF08D2B6E206D2ACDF99D156
:100158000895F894AD9AAFD100E0DDD1E0D1A3DFE6
:10016800A2DFA1DFAD983FD0FFBE789427C0FFB6CD
:10017800F894EF012E96E1D08FDF32E02FEF1FEFDA
:10018800859914C01A95E1F72A95C9F73A95B1F7F8
:10019800A95110F4B150E8F2EF012E96B6D023D051
:1001A800FFBE7894859BFECF77DF08C05996EF0194
:1001B8002E96ABD018D0FFBE789400C03FE02FEF4A
:1001C8001FEFB19B7ACF0000859BD1CF00001A9515
:1001D800C1F72A95A9F73A9591F70000F4D0AD98A0
:1001E800AE98AF98889576D1FAD09DD1EF012C962C
:1001F800A4D09B2F8A2FB5D012D087D1012F7FD1C1
:10020800022F77D19AD065D0B8D009D0AF990068BD
:1002180086D1012FAF9900687ED1D1D008952227C9
:1002280011270027B1FD13D0B0FD18D0A7FD1ED0AF
:10023800A6FD23D0A5FD27D0A4FD2BD0A3FD2ED04D
:10024800A2FD30D0A1FD32D0A0FD34D00895039591
:100258000395139535E0230F30D0089536E0030F4A
:100268003A95130F2395239528D0089538E0030F66
:1002780013951395239521D0089534E0030F36E0A4
:10028800130F1BD008950395039533E0130F15D072
:10029800089536E0030F139510D0089538E0030F42
:1002A8000CD0089534E0030F08D008950395039502
:1002B80004D00895039501D008950A3010F01395DD
:1002C8000A501A3010F023951A502A3008F05BD0E3
:1002D8000895AF98B91730F009F00FC0A81710F0BB
:1002E80089F00BC0AF9A592F482F5B1B4A1B10F49B
:1002F8005A9500C0B52FA42F07C0B91BA81B20F41E
:10030800BA9502C0BB27AA2708950F930B2F04D0D4
:100318000A2F02D00F910895E199FECFDFBBCEBB23
:100328000DBBFFB6F894E29AE19AFFBEC3952FB7CA
:1003380021FDD395D1FD35C008950F9305D0B02F79
:1003480003D0A02F0F910895E199FECFDFBBCEBB5C
:10035800E09A0DB3C3952FB721FDD395D1FD21C0E8
:1003680008956627A83E03E0B00722F06395A85ECB
:10037800B340F8CF68303AF4089500270B1303D040
:10038800A43608F40895F894AD9A95D000E0C3D047
:100398000395C5D088DE87DE86DEAD98FFBE7894EB
:1003A8000DCFF894AD9A87D000E0B5D002E0B7D071
:1003B8007ADE79DE78DEAD98FFBE7894FFCEB4E0C1
:1003C800A1E0CAD00895B4E0A0E0C6D00895B2E094
:1003D800AFE0C2D00895B3E0A6E0BED00895B1E082
:1003E800AFE1BAD00895B1E0A0E0B6D0089572D0D8
:1003F800B0E6A7E3B1D0B1E6AFE4AED0B2E6AEE086
:10040800ABD0B3E6A9D0B4E6AEE7A6D0D8DF08955E
:10041800AA27A068A1D047DEA1609ED044DEA260D2
:100428009BD041DEA46098D03EDEA86095D03BDE2C
:10043800A06192D038DEA0628FD035DEA0648CD067
:1004480032DE089547D0B0E6A1E086D0B3E684D086
:10045800B6E6A8E781D0B3DF05E025DE0A95E9F71F
:10046800B0E6A3E679D0B3E677D002E01CDE0A95C1
:10047800E9F7B6E6A4EB70D003E015DE0A95E9F7D4
:100488000895A0E0B1E408DE67D0B2E465D0B4E432
:1004980063D0B5E461D0B0E4A3E65ED0B3E45CD049
:1004A800B6E4A4EB59D0B4E0ADE056D004E1FBDDEE
:1004B8000A95E9F708950ED0B1E0A8E14DD0B0E66D
:1004C800AFE44AD0B1E6A5E047D0B2E6A5E044D013
:1004D80076DF089580DF7BDF86DFB4E0A0E23CD0E2
:1004E8000895B7E0A1E038D00895B7E0A0E034D08F
:1004F8000895B0E6A02F62FDA0682ED00895B1E659
:10050800A02F61FDA06828D00895B2E6A02F60FD55
:10051800A06822D00895B3E6A02F1ED00895B4E6AF
:10052800A02F1AD00895DF2FCE2F0E2F889407956D
:10053800079507950795B5E603FDB6E603FD077F22
:10054800F2E0EFEFE00F08F4F39500270995FD2F8F
:10055800EC2FA02F01D00895FFB6F894AC98A99A73
:10056800B7FFA9983FD0A99AB6FFA9983BD0A99AF6
:10057800B5FFA99837D0A99AB4FFA99833D0A99AFA
:10058800B3FFA9982FD0A99AB2FFA9982BD0A99AFE
:10059800B1FFA99827D0A99AB0FFA99823D0A99A02
:1005A800A7FFA9981FD0A99AA6FFA9981BD0A99A16
:1005B800A5FFA99817D0A99AA4FFA99813D0A99A1A
:1005C800A3FFA9980FD0A99AA2FFA9980BD0A99A1E
:1005D800A1FFA99807D0A99AA0FFA99803D0AC9A1F
:1005E800FFBE0895A89A0F9302E00A95F1F70F91BC
:1005F8000000A898089507C008C009C00AC00BC029
:100608000CC00DC00EC00068089501600895026016
:1006180008950460089508600895006108950062CF
:060628000895006408952E
:00000001FF
