:020000020000FC
:0200000014C02A
:0200040002C038
:1000080008C0FFB612E0839B2CC01A95E1F7FFBE2B
:100018001895FFB612E0829B2DC01A95E1F7FFBE36
:100028001895F8940FE50DBF04E00EBF0FEF04BB61
:1000380000E105BB002707BB08BB01BB02BB06B933
:100048000AE405BF00EC0BBF00E808B9DDD1A2D176
:1000580036D0B5E6B0D1B6E6AED188D1D5D1789450
:100068008895FFB67096F0FFAE9B0CD08ED0FFBE81
:1000780078940CC0FFB6E051AE9B04D086D0FFBE8A
:10008800789404C0AE9AF0E0E0E008953FE02FEFE6
:100098001FEFB19B1ED0859B43D01A95D1F72A95A7
:1000A800B9F73A95A1F762D1AD98AE98AF9888950F
:1000B80028EC1FEF1A95F1F72A95D9F7089532E041
:1000C8002FEF1FEF1A95F1F72A95D9F73A95C1F74F
:1000D8000895FFB6F894EF012C9603D1E9DF32E0DA
:1000E8002FEF1FEFB19914C01A95E1F72A95C9F7B8
:1000F8003A95B1F7A15010F4B150C8F1EF012C9620
:10010800D8D043D0FFBE7894B19BFECFD1DFBECF0D
:100118001196EF012C96CDD038D0FFBE7894B6CF8B
:10012800FFB6F894EF012E96DCD0C2DF32E02FEF55
:100138001FEF859914C01A95E1F72A95C9F73A95E2
:10014800B1F7A95110F4B15090F0EF012E96B1D04B
:100158001CD0FFBE7894859BFECFAADF97CF599617
:10016800EF012E96A6D011D0FFBE78948FCFF894C9
:10017800AE98AD9A3AD100E062D165D1A0DF9FDF99
:100188009EDF03D0FFBE789481CF3ED1FBD05FD1F4
:10019800EF012C96A6D0B9D09B2F8A2F14D04BD123
:1001A800012F45D1022F3FD19CD067D0B9D00BD0B9
:1001B800AF99006848D1012FAF99006840D1D2D0DB
:1001C800AE9AAD980895222711270027B1FD13D0C4
:1001D800B0FD18D0A7FD1ED0A6FD23D0A5FD27D0C1
:1001E800A4FD2BD0A3FD2ED0A2FD30D0A1FD32D08E
:1001F800A0FD34D0089503950395139535E0230F9A
:1002080030D0089536E0030F3A95130F23952395C0
:1002180028D0089538E0030F13951395239521D01E
:10022800089534E0030F36E0130F1BD008950395AB
:10023800039533E0130F15D0089536E0030F139597
:1002480010D0089538E0030F0CD0089534E0030F60
:1002580008D008950395039504D00895039501D017
:1002680008950A3010F013950A501A3010F02395AB
:100278001A502A3008F05AD00895AF98B91730F0BC
:1002880009F00FC0A81710F089F00BC0AF9A592FCA
:10029800482F5B1B4A1B10F45A9500C0B52FA42F9A
:1002A80007C0B91BA81B20F4BA9502C0BB27AA2710
:1002B80008950F930B2F04D00A2F02D00F910895A1
:1002C800E199FECFDFBBCEBB0DBBFFB6F894E29A37
:1002D800E19AFFBEC3952FB721FDD395D1FD34C058
:1002E80008950F9305D0B02F03D0A02F0F91089534
:1002F800E199FECFDFBBCEBBE09A0DB3C3952FB714
:1003080021FDD395D1FD20C008950CEF11270B23B3
:1003180001130CC09B2F8A2F489692FD07D0089591
:1003280000270B1303D0A43608F40895F894AE9868
:10033800AD9A5BD000E083D0039585D0C0DEBFDEE8
:10034800BEDEFFBE7894A2CEF894AE98AD9A4DD09A
:1003580000E075D002E077D0B2DEB1DEB0DEFFBEDD
:10036800789494CEB4E0A1E08BD00895B4E0A0E0F6
:1003780087D00895B2E0AFE083D00895B3E0A6E057
:100388007FD00895B1E0AFE17BD00895B1E0A0E05F
:1003980077D0089539D0B0E6A7E372D0B1E6AFE4DC
:1003A8006FD0B2E6AEE06CD0B3E66AD0B4E6AEE7A2
:1003B80067D0D8DF0895AA27A06862D080DEA16040
:1003C8005FD07DDEA2605CD07ADEA46059D077DE93
:1003D800A86056D074DEA06153D071DEA06250D000
:1003E8006EDEA0644DD06BDE08950ED0B1E0A8E1BA
:1003F80047D0B0E6AFE444D0B1E6A5E041D0B2E6DC
:10040800A5E03ED0AFDF0895B9DFB4DFBFDFB4E0C9
:10041800A0E236D00895B7E0A1E032D00895B7E061
:10042800A0E02ED00895B0E6A02F2AD00895B1E616
:10043800A02F26D00895B2E6A02F22D00895B3E6C3
:10044800A02F1ED00895B4E6A02F1AD00895DF2F4C
:10045800CE2F0E2F88940795079507950795B5E633
:1004680003FDB6E603FD077FF2E0E3E9E00F08F4D9
:10047800F39500270995FD2FEC2FA02F01D00895A3
:10048800FFB6F894AC98A99AB7FFA9983FD0A99A53
:10049800B6FFA9983BD0A99AB5FFA99837D0A99AD1
:1004A800B4FFA99833D0A99AB3FFA9982FD0A99AD5
:1004B800B2FFA9982BD0A99AB1FFA99827D0A99AD9
:1004C800B0FFA99823D0A99AA7FFA9981FD0A99AE5
:1004D800A6FFA9981BD0A99AA5FFA99817D0A99AF1
:1004E800A4FFA99813D0A99AA3FFA9980FD0A99AF5
:1004F800A2FFA9980BD0A99AA1FFA99807D0A99AF9
:10050800A0FFA99803D0AC9AFFBE0895A89A0F93AC
:1005180002E00A95F1F70F910000A898089507C026
:1005280008C009C00AC00BC00CC00DC00EC00068CE
:1005380008950160089502600895046008950860B0
:0E05480008950061089500620895006408950A
:00000001FF
